:020000040800F2
:100000000050002011060008A9040008B5040008EB
:10001000BB040008C1040008C70400080000000079
:10002000000000000000000000000000CD040008F7
:10003000D904000800000000E5040008F1040008ED
:100040005906000859060008590600085906000814
:100050005906000859060008590600085906000804
:1000600059060008590600085906000859060008F4
:1000700059060008590600085906000859060008E4
:1000800059060008590600085906000859060008D4
:1000900059060008590600085906000859060008C4
:1000A00059060008590600085906000859060008B4
:1000B00059060008590600085906000859060008A4
:1000C0005906000859060008590600085906000894
:1000D0005906000859060008590600085906000884
:1000E00059060008590600085906000800000000DB
:1000F0000000000000000000000000000000000000
:0C01000000000000000000005FF808F1A3
:10010C0010B5054C237833B9044B13B10448AFF345
:10011C0000800123237010BD84000020000000002B
:10012C009422000808B5034B1BB103490348AFF3F5
:10013C00008008BD00000000880000209422000808
:10014C0080B586B000AFF860B9607A6000237B613F
:10015C000AE0B9684B1CBB6064230122074801F01C
:10016C00D4F97B6901337B617A697B689A42F0DB55
:10017C007B6818461837BD4680BD00BFB80000200C
:10018C0080B582B000AF78604FF40051044800F0A5
:10019C0039FD786800F0BEFA00BF0837BD4680BD57
:1001AC00001001402DE9904882B000AF104B1B6845
:1001BC009B464FF0000C0F494FF002020BEA010373
:1001CC000CEA0204002C08BFB3F1005F0AD10A4B01
:1001DC001B687B60064B1B683B603B6883F308889D
:1001EC007B68984700BF0837BD46BDE8908800BFC4
:1001FC00002800080000F5FF0428000880B582B034
:10020C0000AF00F025FA00F021F800F085F800F0BE
:10021C0059F801F0E5FA00237B6000237B6008E0CD
:10022C006420FFF7ADFF074801F024FC7B68013325
:10023C007B607B68132BF3DD034801F01BFCFFF79D
:10024C00B1FFEAE7AC220008B822000880B590B0F4
:10025C0000AF07F1180328220021184601F0A6FB75
:10026C003B1D00221A605A609A60DA601A61022300
:10027C00BB610123BB621023FB6200237B6307F18C
:10028C001803184600F0D8FC0346002B01D000F0F0
:10029C0083F80F237B600023BB600023FB600023EB
:1002AC003B6100237B613B1D0021184600F044FF9D
:1002BC000346002B01D000F06FF800BF4037BD465D
:1002CC0080BD000080B500AF114B124A1A60104B74
:1002DC004FF4E1325A600E4B00229A600C4B002214
:1002EC00DA600B4B00221A61094B0C225A61084B45
:1002FC0000229A61064B0022DA61054801F0B8F839
:10030C000346002B01D000F047F800BF80BD00BFB2
:10031C00B80000200044004080B586B000AF07F163
:10032C00080300221A605A609A60DA60184B9B69C5
:10033C00174A43F010039361154B9B6903F01003AC
:10034C007B607B68124B9B69114A43F004039361F9
:10035C000F4B9B6903F004033B603B6800224FF496
:10036C0000510C4800F036FC4FF40053BB600123E5
:10037C00FB6000233B6102237B6107F108031946F4
:10038C00044800F0CDFA00BF1837BD4680BD00BF51
:10039C00001002400010014080B400AF00BFBD4609
:1003AC0080BC704780B485B000AF154B9B69144A74
:1003BC0043F001039361124B9B6903F00103BB6093
:1003CC00BB680F4BDB690E4A43F08053D3610C4B77
:1003DC00DB6903F080537B607B680A4B5B68FB60D6
:1003EC00FB6823F0E063FB60FB6843F00073FB6089
:1003FC00044AFB68536000BF1437BD4680BC70478D
:10040C00001002400000014080B588B000AF786059
:10041C0007F1100300221A605A609A60DA607B6858
:10042C001B681B4A93422FD11A4BDB69194A43F4C0
:10043C000033D361174BDB6903F40033FB60FB68BB
:10044C00144B9B69134A43F004039361114B9B6952
:10045C0003F00403BB60BB6804233B6102237B6194
:10046C000323FB6107F1100319460B4800F058FAFF
:10047C0008233B6100237B610023BB6107F1100360
:10048C001946054800F04CFA00BF2037BD4680BD28
:10049C0000440040001002400008014080B400AF4E
:1004AC0000BFBD4680BC704780B400AFFEE780B48F
:1004BC0000AFFEE780B400AFFEE780B400AFFEE70C
:1004CC0080B400AF00BFBD4680BC704780B400AFA5
:1004DC0000BFBD4680BC704780B400AF00BFBD46B6
:1004EC0080BC704780B500AF00F0F8F800BF80BD4D
:1004FC0080B586B000AFF860B9607A6000237B618C
:10050C000AE0AFF300800146BB685A1CBA60CAB25D
:10051C001A707B6901337B617A697B689A42F0DBE4
:10052C007B6818461837BD4680BD80B483B000AFD9
:10053C0078604FF0FF3318460C37BD4680BC7047CF
:10054C0080B483B000AF786039603B684FF40052E0
:10055C005A60002318460C37BD4680BC704780B4E7
:10056C0083B000AF7860012318460C37BD4680BCC1
:10057C00704780B485B000AFF860B9607A60002332
:10058C0018461437BD4680BC7047000080B586B055
:10059C0000AF7860144A154BD31A7B617B693B61C1
:1005AC00134B1B68002B02D1114B124A1A60104BD3
:1005BC001A687B6813443A699A4207D201F0CCF965
:1005CC0002460C2313604FF0FF3309E0084B1B6805
:1005DC00FB60074B1A687B681344054A1360FB6881
:1005EC0018461837BD4680BD00500020000400009E
:1005FC00A00000206805002080B400AF00BFBD46FD
:10060C0080BC70470C480D490D4A002302E0D458B9
:10061C00C4500433C4188C42F9D30A4A0A4C002340
:10062C0001E013600432A242FBD3FFF7E5FF01F0B7
:10063C0099F9FFF7E3FD70470000002084000020CB
:10064C00682300088400002068050020FEE70000F5
:10065C0080B500AF084B1B68074A43F010031360CA
:10066C00032000F029F9002000F008F8FFF79AFEAB
:10067C000023184680BD00BF0020024080B582B028
:10068C0000AF7860124B1A68124B1B7819464FF466
:10069C007A73B3FBF1F3B2FBF3F3184600F033F9C2
:1006AC000346002B01D001230EE07B680F2B0AD8E8
:1006BC00002279684FF0FF3000F009F9064A7B6898
:1006CC001360002300E0012318460837BD4680BDA7
:1006DC0000000020080000200400002080B400AFBF
:1006EC00054B1B781A46054B1B681344034A1360D1
:1006FC0000BFBD4680BC704708000020FC000020F5
:10070C0080B400AF024B1B681846BD4680BC7047D6
:10071C00FC00002080B584B000AF7860FFF7F0FFDC
:10072C00B8607B68FB60FB68B3F1FF3F05D0094BF9
:10073C001B781A46FB681344FB6000BFFFF7E0FF11
:10074C000246BB68D31AFA689A42F7D800BF103732
:10075C00BD4680BD0800002080B485B000AF786035
:10076C007B6803F00703FB600C4BDB68BB60BA686B
:10077C004FF6FF031340BB60FB681A02BB681343C0
:10078C0043F0BF6343F40033BB60044ABB68D360DF
:10079C0000BF1437BD4680BC704700BF00ED00E0C1
:1007AC0080B400AF044BDB681B0A03F00703184648
:1007BC00BD4680BC704700BF00ED00E080B483B044
:1007CC0000AF03463960FB7197F90730002B0ADB49
:1007DC003B68DAB20C4997F907301201D2B20B44DC
:1007EC0083F800230AE03B68DAB20849FB7903F08E
:1007FC000F03043B1201D2B20B441A7600BF0C3724
:10080C00BD4680BC704700BF00E100E000ED00E099
:10081C0080B489B000AFF860B9607A60FB6803F00F
:10082C000703FB61FB69C3F10703042B28BF0423F7
:10083C00BB61FB690433062B02D9FB69033B00E067
:10084C0000237B614FF0FF32BB6902FA03F3DA43FA
:10085C00BB681A407B699A404FF0FF317B6901FA03
:10086C0003F3D9437B680B40134318462437BD462A
:10087C0080BC704780B582B000AF78607B68013B6C
:10088C00B3F1807F01D301230FE00A4A7B68013B5F
:10089C0053600F214FF0FF30FFF790FF054B002204
:1008AC009A60044B07221A60002318460837BD468D
:1008BC0080BD00BF10E000E080B582B000AF786072
:1008CC007868FFF749FF00BF0837BD4680BD80B58B
:1008DC0086B000AF0346B9607A60FB7300237B617E
:1008EC00FFF75EFF78617A68B9687869FFF790FF67
:1008FC00024697F90F3011461846FFF75FFF00BF0D
:10090C001837BD4680BD80B582B000AF786078687E
:10091C00FFF7B0FF034618460837BD4680BD000000
:10092C0080B48BB000AF7860396000237B62002309
:10093C003B6227E101227B6A02FA03F3FB613B680D
:10094C001B68FA691340BB61BA69FB699A4240F0B3
:10095C0016813B685B68122B34D0122B0DD8022BFE
:10096C002BD0022B04D8002B31D0012B1CD048E00B
:10097C00032B43D0112B1BD043E0894A934226D042
:10098C00874A934206D8874A934220D0864A93429C
:10099C001DD036E0854A934219D0854A934216D031
:1009AC00844A934213D02CE03B68DB683B6228E01E
:1009BC003B68DB6804333B6223E03B68DB6808334D
:1009CC003B621EE03B68DB680C333B6219E03B6822
:1009DC009B68002B02D104233B6212E03B689B68AE
:1009EC00012B05D108233B627B68FA691A6108E088
:1009FC0008233B627B68FA695A6102E000233B6280
:100A0C0000BFBB69FF2B01D87B6801E07B68043316
:100A1C007B61BB69FF2B02D87B6A9B0002E07B6A7F
:100A2C00083B9B003B617B691A680F213B6901FA0B
:100A3C0003F3DB431A40396A3B6901FA03F31A43A7
:100A4C007B691A603B685B6803F08053002B00F0F5
:100A5C009680594B9B69584A43F001039361564B5E
:100A6C009B6903F00103BB60BB68544A7B6A9B081B
:100A7C00023352F82330FB607B6A03F003039B00C4
:100A8C000F2202FA03F3DB43FA681340FB607B6826
:100A9C004B4A934213D07B684A4A93420DD07B68F1
:100AAC00494A934207D07B68484A934201D10323B9
:100ABC0006E0042304E0022302E0012300E000230B
:100ACC007A6A02F0030292009340FA681343FB60C7
:100ADC003A497B6A9B080233FA6841F823203B6849
:100AEC005B6803F48033002B06D0394B1A68384905
:100AFC00BB6913430B6006E0354B1A68BB69DB43DB
:100B0C00334913400B603B685B6803F40033002BE4
:100B1C0006D02F4B5A682E49BB6913434B6006E035
:100B2C002B4B5A68BB69DB43294913404B603B682C
:100B3C005B6803F48013002B06D0254B9A6824497C
:100B4C00BB6913438B6006E0214B9A68BB69DB439E
:100B5C001F4913408B603B685B6803F40013002B48
:100B6C0006D01B4BDA681A49BB691343CB6006E00D
:100B7C00174BDA68BB69DB4315491340CB607B6AC2
:100B8C0001337B623B681A687B6A22FA03F3002B01
:100B9C007FF4D0AE00BF2C37BD4680BC704700BF81
:100BAC000000211000001110000012100000311084
:100BBC000000321000002210001002400000014022
:100BCC0000080140000C01400010014000140140DD
:100BDC000004014080B483B000AF78600B467B808A
:100BEC0013467B707B78002B03D07A887B681A6164
:100BFC0003E07B881A047B681A6100BF0C37BD4682
:100C0C0080BC704780B485B000AF78600B467B80A9
:100C1C007B68DB68FB607A88FB6813401A04FB680E
:100C2C00D9437B880B401A437B681A6100BF143789
:100C3C00BD4680BC7047000080B586B000AF7860C0
:100C4C007B68002B01D101236CE27B681B6803F0ED
:100C5C000103002B00F08780924B5B6803F00C03C0
:100C6C00042B0CD08F4B5B6803F00C03082B12D1B8
:100C7C008C4B5B6803F48033B3F5803F0BD1894B0D
:100C8C001B6803F40033002B6CD07B685B68002B73
:100C9C0068D1012346E27B685B68B3F5803F06D1DF
:100CAC00804B1B687F4A43F4803313602EE07B68D3
:100CBC005B68002B0CD17B4B1B687A4A23F4803386
:100CCC001360784B1B68774A23F4802313601DE074
:100CDC007B685B68B3F5A02F0CD1724B1B68714A13
:100CEC0043F4802313606F4B1B686E4A43F48033CC
:100CFC0013600BE06B4B1B686A4A23F48033136060
:100D0C00684B1B68674A23F4802313607B685B681D
:100D1C00002B13D0FFF7F4FC386108E0FFF7F0FC70
:100D2C0002463B69D31A642B01D90323FAE15D4BCC
:100D3C001B6803F40033002BF0D014E0FFF7E0FC49
:100D4C00386108E0FFF7DCFC02463B69D31A642BE0
:100D5C0001D90323E6E1534B1B6803F40033002B4A
:100D6C00F0D100E000BF7B681B6803F00203002B8E
:100D7C0063D04C4B5B6803F00C03002B0BD0494B3E
:100D8C005B6803F00C03082B1CD1464B5B6803F427
:100D9C008033002B16D1434B1B6803F00203002B4E
:100DAC0005D07B681B69012B01D00123BAE13D4BB7
:100DBC001B6823F0F8027B685B69DB00394913433D
:100DCC000B603AE07B681B69002B20D0364B01226C
:100DDC001A60FFF795FC386108E0FFF791FC0246BA
:100DEC003B69D31A022B01D903239BE12D4B1B68C2
:100DFC0003F00203002BF0D02A4B1B6823F0F802FF
:100E0C007B685B69DB00274913430B6015E0264BBD
:100E1C0000221A60FFF774FC386108E0FFF770FCE1
:100E2C0002463B69D31A022B01D903237AE11D4BED
:100E3C001B6803F00203002BF0D17B681B6803F0E6
:100E4C000803002B3AD07B689B69002B19D0174BF9
:100E5C0001221A60FFF754FC386108E0FFF750FCE0
:100E6C0002463B69D31A022B01D903235AE10D4BDD
:100E7C005B6A03F00203002BF0D0012000F0DAFAD9
:100E8C001CE00A4B00221A60FFF73AFC38610FE0B5
:100E9C00FFF736FC02463B69D31A022B08D9032311
:100EAC0040E100BF00100240000042428004424278
:100EBC009E4B5B6A03F00203002BE9D17B681B6835
:100ECC0003F00403002B00F0A6800023FB75974B66
:100EDC00DB6903F08053002B0DD1944BDB69934AF3
:100EEC0043F08053D361914BDB6903F08053BB60BB
:100EFC00BB680123FB758E4B1B6803F48073002BBE
:100F0C0018D18B4B1B688A4A43F480731360FFF72C
:100F1C00F7FB386108E0FFF7F3FB02463B69D31A95
:100F2C00642B01D90323FDE0814B1B6803F4807310
:100F3C00002BF0D07B68DB68012B06D17B4B1B6A46
:100F4C007A4A43F0010313622DE07B68DB68002BC7
:100F5C000CD1764B1B6A754A23F001031362734B59
:100F6C001B6A724A23F0040313621CE07B68DB6883
:100F7C00052B0CD16D4B1B6A6C4A43F004031362B6
:100F8C006A4B1B6A694A43F0010313620BE0674B1F
:100F9C001B6A664A23F001031362644B1B6A634AA3
:100FAC0023F0040313627B68DB68002B15D0FFF77A
:100FBC00A7FB38610AE0FFF7A3FB02463B69D31A93
:100FCC0041F28832934201D90323ABE0574B1B6AA1
:100FDC0003F00203002BEED014E0FFF791FB386115
:100FEC000AE0FFF78DFB02463B69D31A41F28832C7
:100FFC00934201D9032395E04C4B1B6A03F0020387
:10100C00002BEED1FB7D012B05D1484BDB69474A08
:10101C0023F08053D3617B68DB69002B00F0818067
:10102C00424B5B6803F00C03082B61D07B68DB69D7
:10103C00022B46D13F4B00221A60FFF761FB38614F
:10104C0008E0FFF75DFB02463B69D31A022B01D97E
:10105C00032367E0354B1B6803F00073002BF0D1C2
:10106C007B681B6AB3F5803F08D1304B5B6823F477
:10107C0000327B689B682D4913434B602B4B5B689C
:10108C0023F474127B68196A7B685B6A0B432749EB
:10109C0013434B60274B01221A60FFF731FB386179
:1010AC0008E0FFF72DFB02463B69D31A022B01D94E
:1010BC00032337E01D4B1B6803F00073002BF0D0AB
:1010CC002FE01C4B00221A60FFF71AFB386108E076
:1010DC00FFF716FB02463B69D31A022B01D90323F7
:1010EC0020E0124B1B6803F00073002BF0D118E0CA
:1010FC007B68DB69012B01D1012313E00B4B5B688F
:10110C00FB60FB6803F480327B681B6A9A4206D151
:10111C00FB6803F470127B685B6A9A4201D001236E
:10112C0000E0002318461837BD4680BD0010024071
:10113C00007000406000424280B584B000AF78601F
:10114C0039607B68002B01D10123D0E06A4B1B680E
:10115C0003F007033A689A4210D9674B1B6823F0D7
:10116C00070265493B6813430B60634B1B6803F034
:10117C0007033A689A4201D00123B8E07B681B68E8
:10118C0003F00203002B20D07B681B6803F00403E0
:10119C00002B05D0594B5B68584A43F4E06353600D
:1011AC007B681B6803F00803002B05D0534B5B686E
:1011BC00524A43F460535360504B5B6823F0F00287
:1011CC007B689B684D4913434B607B681B6803F03D
:1011DC000103002B40D07B685B68012B07D1474B88
:1011EC001B6803F40033002B15D101237FE07B68CF
:1011FC005B68022B07D1414B1B6803F00073002B7B
:10120C0009D1012373E03D4B1B6803F00203002B53
:10121C0001D101236BE0394B5B6823F003027B683F
:10122C005B68364913434B60FFF76AFAF8600AE0D3
:10123C00FFF766FA0246FB68D31A41F288329342F2
:10124C0001D9032353E02D4B5B6803F00C027B6840
:10125C005B689B009A42EBD1274B1B6803F007039A
:10126C003A689A4210D2244B1B6823F00702224999
:10127C003B6813430B60204B1B6803F007033A6871
:10128C009A4201D0012332E07B681B6803F004030F
:10129C00002B08D0194B5B6823F4E0627B68DB6899
:1012AC00164913434B607B681B6803F00803002B43
:1012BC0009D0124B5B6823F460527B681B69DB001E
:1012CC000E4913434B6000F021F801460B4B5B6851
:1012DC001B0903F00F030A4AD35C21FA03F3094AF2
:1012EC001360094B1B681846FFF7C8F90023184612
:1012FC001037BD4680BD00BF0020024000100240E8
:10130C00E4220008000000200400002090B48AB001
:10131C0000AF2A4B3C1D0FCB84E80F00284B1B88D9
:10132C003B800023FB610023BB6100237B62002315
:10133C007B6100233B62234B5B68FB61FB6903F021
:10134C000C03042B02D0082B03D02DE01E4B3B6268
:10135C002DE0FB699B0C03F00F0307F128021344EB
:10136C0013F8243C7B61FB6903F48033002B13D00E
:10137C00144B5B685B0C03F0010307F12802134468
:10138C0013F8283CBB617B690F4A02FB03F2BB6973
:10139C00B2FBF3F37B6204E07B690C4A02FB03F3C0
:1013AC007B627B6A3B6202E0074B3B6200BF3B6A9D
:1013BC0018462837BD4690BC704700BFD0220008A5
:1013CC00E02200080010024000127A0000093D00E3
:1013DC0080B400AF024B1B681846BD4680BC7047FA
:1013EC000000002080B500AFFFF7F2FF0146054B6F
:1013FC005B681B0A03F00703034AD35C21FA03F36F
:10140C00184680BD00100240F422000880B500AFE1
:10141C00FFF7DEFF0146054B5B68DB0A03F00703B1
:10142C00034AD35C21FA03F3184680BD0010024036
:10143C00F422000880B485B000AF78600A4B1B68BA
:10144C000A4AA2FB03235B0A7A6802FB03F3FB60E4
:10145C0000BFFB685A1EFA60002BF9D100BF14378D
:10146C00BD4680BC704700BF00000020D34D621009
:10147C0080B582B000AF78607B68002B01D101236E
:10148C003FE07B6893F83D30DBB2002B06D17B68E4
:10149C00002283F83C207868FEF7B6FF7B68242294
:1014AC0083F83D207B681B68DA687B681B6822F434
:1014BC000052DA60786800F005F97B681B681A69DD
:1014CC007B681B6822F490421A617B681B685A691E
:1014DC007B681B6822F02A025A617B681B68DA68F9
:1014EC007B681B6842F40052DA607B6800221A6445
:1014FC007B68202283F83D207B68202283F83E20E5
:10150C00002318460837BD4680BD80B58AB002AFAF
:10151C00F860B9603B601346FB8000237B61FB687D
:10152C0093F83D30DBB2202B7CD1BB68002B02D072
:10153C00FB88002B01D1012375E0FB6893F83C304C
:10154C00012B01D102236EE0FB68012283F83C20C1
:10155C00FB6800221A64FB68212283F83D20FFF708
:10156C00CFF87861FB68FA889A84FB68FA88DA8489
:10157C00FB689B68B3F5805F08D1FB681B69002B87
:10158C0004D10023FB61BB68BB6103E0BB68FB615A
:10159C000023BB61FB68002283F83C202AE03B68F7
:1015AC0000937B6900228021F86800F040F8034624
:1015BC00002B01D0032336E0FB69002B0BD1BB6958
:1015CC001B881A46FB681B68C2F308025A60BB6989
:1015DC000233BB6107E0FB691A78FB681B685A6031
:1015EC00FB690133FB61FB68DB8C9BB2013B9AB25C
:1015FC00FB68DA84FB68DB8C9BB2002BCFD13B6899
:10160C0000937B6900224021F86800F010F8034633
:10161C00002B01D0032306E0FB68202283F83D2039
:10162C00002300E0022318462037BD4680BD80B55C
:10163C0084B000AFF860B9603B601346FB712CE0DE
:10164C00BB69B3F1FF3F28D0BB69002B07D0FFF774
:10165C0057F802463B68D31ABA699A421DD2FB6806
:10166C001B68DA68FB681B6822F4D072DA60FB68CE
:10167C001B685A69FB681B6822F001025A61FB68FF
:10168C00202283F83D20FB68202283F83E20FB6853
:10169C00002283F83C2003230FE0FB681B681A68C8
:1016AC00BB681340BA689A420CBF01230023DBB21B
:1016BC001A46FB799A42C3D0002318461037BD4610
:1016CC0080BD000080B584B000AF78607B681B687B
:1016DC001B6923F440517B68DA687B681B680A43FA
:1016EC001A617B689A687B681B691A437B685B6923
:1016FC001343BB607B681B68DB6823F4B05323F097
:10170C000C037A681268B9680B43D3607B681B685A
:10171C005B6923F440717B689A697B681B680A4398
:10172C005A617B681B682C4A934203D1FFF76EFE0B
:10173C00F86002E0FFF756FEF860FA6813469B006B
:10174C0013449A001A447B685B689B00B2FBF3F36A
:10175C00224AA2FB03235B091901FA6813469B007A
:10176C0013449A001A447B685B689B00B2FBF3F24B
:10177C001A4BA3FB02035B09642000FB03F3D31A8F
:10178C001B013233154AA2FB03235B0903F0F00360
:10179C001944FA6813469B0013449A001A447B6858
:1017AC005B689B00B2FBF3F20C4BA3FB02035B09DF
:1017BC00642000FB03F3D31A1B013233074AA2FB4C
:1017CC0003235B0903F00F027B681B680A449A60D1
:1017DC0000BF1037BD4680BD003801401F85EB515E
:1017EC0080B500AF0449054800F0A6F803461A4638
:1017FC00034B1A7000BF80BD000100200C000020BC
:10180C000401002080B483B000AF0346FB71054B8C
:10181C0001221A70034B1B78DBB218460C37BD46FD
:10182C0080BC70470900002080B483B000AF034631
:10183C00FB71054B01221A70034B1B78DBB2184667
:10184C000C37BD4680BC70470900002080B485B0C1
:10185C0000AFB9607A603B600346FB730023184607
:10186C001437BD4680BC704780B485B000AFB960FA
:10187C007A603B600346FB73002318461437BD4661
:10188C0080BC704780B485B000AF03463A60FB71F2
:10189C000B46BB710123FB73FB7B18461437BD460B
:1018AC0080BC704780B487B000AFF860B960134655
:1018BC00FB710123FB750023BB751E4B5B7ADBB2FE
:1018CC00012B31D81B4B5B7ADBB21A46194B00212A
:1018DC009954184B5B7ADBB2164A9B001344FA6896
:1018EC005A60144B5B7ADBB21A46124B1344FA79EA
:1018FC001A72104B5B7ADBB25A1CD1B20D4A517280
:10190C00BB75BB7D3033DAB2BB681A70BB68013370
:10191C003A221A70BB6802332F221A70BB68033349
:10192C0000221A700023FB75FB7D18461C37BD4640
:10193C0080BC7047A400002080B582B000AF7860F6
:10194C003960002239687868FFF7ACFF0346184607
:10195C000837BD4680BD0000014B1868704700BFBA
:10196C002000002070B500250C4E0D4CA41BA410BB
:10197C00A54209D100F088FC00250A4E0A4CA41B94
:10198C00A410A54205D170BD56F8253098470135F5
:10199C00EEE756F8253098470135F2E7602300084A
:1019AC0060230008602300086423000803460244F7
:1019BC00934200D1704703F8011BF9E770B50E464E
:1019CC00054618B183690BB900F00CFAAB69AC6829
:1019DC0013B9284600F006FA234B9C4217D16C68C9
:1019EC00A3891B071DD52369DBB1013EA36816F83B
:1019FC00011F013BA360E9B9002B2EDA22460A2114
:101A0C00284600F03FF8013011D00A2011E0174BA6
:101A1C009C4201D1AC68E3E7154B9C4208BFEC68D3
:101A2C00DEE72146284600F07FF80028DDD04FF095
:101A3C00FF3070BD002B04DAA2699A4206DC0A2939
:101A4C0004D023685A1C22601970CFE7224628461E
:101A5C0000F018F80130C9D1E9E70A2023685A1CB4
:101A6C0022601870E5E700BF20230008402300081F
:101A7C0000230008024B01461868FFF79FBF00BF08
:101A8C0020000020F8B50E461446054618B18369AF
:101A9C000BB900F0A7F9214B9C422AD16C68A369C1
:101AAC00A360A3891A072ED5236963B32369206821
:101ABC00F6B2C01A63693746834204DC21462846D5
:101ACC0000F026F928BBA3680130013BA360236812
:101ADC005A1C22601E706369834204D0A389DB0701
:101AEC0019D50A2E17D12146284600F011F990B1CC
:101AFC000FE00B4B9C4201D1AC68D0E7094B9C42E8
:101B0C0008BFEC68CBE72146284600F00DF800280A
:101B1C00CCD04FF0FF373846F8BD00BF202300086B
:101B2C004023000800230008324B70B51D680646A0
:101B3C000C4625B1AB6913B9284600F053F92E4B6E
:101B4C009C420FD16C68B4F90C309AB215072CD4A6
:101B5C00D00611D40922326043F04003A3814FF028
:101B6C00FF303EE0254B9C4201D1AC68EBE7244BA7
:101B7C009C4208BFEC68E6E7510712D5616B41B196
:101B8C0004F14403994202D0304600F019FA0023C4
:101B9C006363A38923F02403A38100236360236977
:101BAC002360A38943F00803A38123694BB9A3895C
:101BBC0003F42073B3F5007F03D02146304600F0C8
:101BCC00BFF9A28912F001030CD00023A360636952
:101BDC005B42A361236953B9B4F90C3013F0800054
:101BEC00BAD170BD920758BF6369A360F2E70020B9
:101BFC00F7E700BF20000020202300084023000846
:101C0C00002300088A892DE9F041054610070C468F
:101C1C0058D44B68002B05DC0B6C002B02DC00202D
:101C2C00BDE8F081E66A002EF9D0002312F4805250
:101C3C002F68216A2B6032D0606DA3895A0705D5B5
:101C4C006368C01A636B0BB1236CC01A0023024685
:101C5C00E66A216A2846B047431CA38906D1296845
:101C6C001D2948D8294ACA40D60744D500226260AB
:101C7C002269D904226004D5421C01D12B6803B916
:101C8C006065616B2F600029C9D004F1440399424F
:101C9C0002D0284600F094F900206063C0E70123CD
:101CAC002846B047411CC8D12B68002BC5D01D2B32
:101CBC0001D0162B01D12F60B1E7A38943F040036B
:101CCC00A381ADE70F69002FA9D0930718BF00239C
:101CDC000E6808BF4B69A6EB07080F608B60B8F164
:101CEC00000F9CDD43463A46216A2846A66AB04757
:101CFC00002806DCA38943F04003A3814FF0FF309A
:101D0C008EE70744A8EB0008E9E700BF010040207C
:101D1C0038B50B6905460C46DBB118B183690BB9B4
:101D2C0000F060F80C4B9C4209D16C68B4F90C3093
:101D3C007BB121462846BDE83840FFF763BF074B0F
:101D4C009C4201D1AC68F1E7054B9C4208BFEC68A2
:101D5C00ECE7002038BD00BF20230008402300081A
:101D6C0000230008002310B50446C0E9003383604B
:101D7C0081814366C281C0E904338361194608221C
:101D8C005C30FFF713FE054B24626362044BA362C5
:101D9C00044BE362044B236310BD00BF39210008E0
:101DAC005B21000893210008B7210008014900F0CD
:101DBC0085B800BF1D1D000870B568254A1E554327
:101DCC000E4605F1740100F047F9044640B10021BC
:101DDC00C0E900160C30A06005F16802FFF7E6FDC3
:101DEC00204670BD836910B5044633BBC0E912337D
:101DFC000365124B124A1B688262984204BF01238E
:101E0C00836100F01FF86060204600F01BF8A060B2
:101E1C00204600F017F80022E06004216068FFF70C
:101E2C00A1FF01220921A068FFF79CFF02221221C9
:101E3C00E068FFF797FF0123A36110BDFC220008A7
:101E4C00B91D0008F8B51B4B07461E68B36913B9DA
:101E5C003046FFF7C7FF4836D6E90134013B03D5BE
:101E6C00336833B13668F7E7B4F90C506DB16834A8
:101E7C00F4E704213846FFF79FFF30600028F1D1CA
:101E8C000C2304463B602046F8BD0B4B6566C4E949
:101E9C000055A560C4E90335C4E905550822294657
:101EAC0004F15C00FFF782FDC4E90D55C4E912553D
:101EBC00E9E700BFFC2200080100FFFF2DE9F84311
:101ECC0080468946002600F1480414B93046BDE826
:101EDC00F883D4E90175013F01D52468F5E7AB8996
:101EEC00012B07D9B5F90E30013303D029464046F2
:101EFC00C84706436835EEE770B50E46B1F90E10CB
:101F0C0096B0002914461D4607DA00232B60B389CE
:101F1C001A0610D44FF480630EE06A4600F06CF998
:101F2C000028F2DB019A02F47042A2F500535A42E7
:101F3C005A412A60EEE740230020236016B070BDA2
:101F4C008B8973B59D0706460C4607D504F14703EC
:101F5C00236023610123636102B070BD01AB6A464B
:101F6C00FFF7CAFF00990546304600F075F848B9EE
:101F7C00B4F90C309A05EFD423F0030343F00203B9
:101F8C00A381E3E70D4BB362A389206043F0800388
:101F9C00A381009B20616361019B5BB1B4F90E10BE
:101FAC00304600F03BF928B1A38923F0030343F03A
:101FBC000103A381A3891D43A581CDE7B91D0008A9
:101FCC0038B50546002943D051F8043C0C1F002BB2
:101FDC00B8BFE41800F044F91E4A1368104633B930
:101FEC00636014602846BDE8384000F03AB9A3425B
:101FFC000BD921686218934201BF1A685B685218AA
:10200C00226063600460EDE713465A680AB1A2428D
:10201C00FAD919685818A0420BD1206801445818F5
:10202C0082421960DED110685268014419605A600E
:10203C00D8E702D90C232B60D4E7206821188A42F8
:10204C0001BF116852680918216062605C60C9E7C1
:10205C0038BD00BFB000002070B5CD1C25F00305C5
:10206C0008350C2D38BF0C25002D064601DBA94286
:10207C0003D90C233360002070BD00F0F1F8214A25
:10208C001468214691B9204C23681BB9304600F0E6
:10209C003DF820602946304600F038F8431C24D126
:1020AC000C233046336000F0DCF8E4E70B685B1B74
:1020BC0018D40B2B0FD90B60CC18CD50304600F038
:1020CC00D0F804F10B00231D20F00700C31AD3D065
:1020DC005A42E250D0E74B688C4216BF63601360E3
:1020EC000C46EBE70C464968CCE7C41C24F003040F
:1020FC00A04205D0211A304600F008F80130CFD0AC
:10210C002560DBE7B0000020B400002038B50023C8
:10211C00054C054608462360FEF738FA431C02D1ED
:10212C00236803B12B6038BD6405002010B50C4644
:10213C00B1F90E1000F096F80028ABBF636DA389BF
:10214C001B1823F48053ACBF6365A38110BD2DE92C
:10215C00F0411F468B890546DB050C46164605D516
:10216C0002230022B1F90E1000F068F8A389324660
:10217C0023F48053A381B4F90E103B462846BDE8E6
:10218C00F04100F017B810B50C46B1F90E1000F084
:10219C0055F8431CA38915BF606523F4805343F4A1
:1021AC008053A38118BFA38110BDB1F90E1000F0AC
:1021BC0013B8000038B50546084611460022054CF8
:1021CC0022601A46FDF7BCFF431C02D1236803B101
:1021DC002B6038BD6405002038B50023054C05463E
:1021EC0008462360FEF7A1F9431C02D1236803B112
:1021FC002B6038BD6405002038B50023064C05461D
:10220C00084611462360FEF79BF9431C02D1236854
:10221C0003B12B6038BD00BF6405002038B5002326
:10222C00054C054608462360FEF799F9431C02D17C
:10223C00236803B12B6038BD6405002038B5054612
:10224C00084611460022054C22601A46FEF791F909
:10225C00431C02D1236803B12B6038BD64050020F8
:10226C007047704738B50546084611460022054CA4
:10227C0022601A46FEF73CF9431C02D1236803B1D5
:10228C002B6038BD64050020F8B500BFF8BC08BC55
:10229C009E467047F8B500BFF8BC08BC9E46704718
:1022AC00424C2052756E6E696E67000053776974EC
:1022BC006368696E6720746F20415050202E2E2E5B
:1022CC002E2E000002030405060708090A0B0C0D4C
:1022DC000E0F1010010200000000000000000000B2
:1022EC0001020304060708090000000001020304B0
:1022FC00240000200000000000000000000000008E
:10230C0000000000000000000000000000000000C1
:10231C0000000000000000000000000000000000B1
:10232C0000000000000000000000000000000000A1
:10233C000000000000000000000000000000000091
:10234C000000000000000000000000000000000081
:04235C00000000007D
:04236000310100083F
:042364000D0100085F
:102368000024F4001000000001010000111800080A
:102378003518000859180008751800089118000841
:10238800240000200000000020230008402300084B
:10239800002300080000000000000000000000000A
:1023A8000000000000000000000000000000000025
:1023B8000000000000000000000000000000000015
:1023C8000000000000000000000000000000000005
:1023D80000000000000000000000000000000000F5
:0423E80000000000F1
:0400000508000611D8
:00000001FF
